{"abi":[{"type":"constructor","inputs":[{"name":"_token0","type":"address","internalType":"address"},{"name":"_token1","type":"address","internalType":"address"}],"stateMutability":"nonpayable"},{"type":"function","name":"FEE","inputs":[],"outputs":[{"name":"","type":"uint256","internalType":"uint256"}],"stateMutability":"view"},{"type":"function","name":"FEE_DENOMINATOR","inputs":[],"outputs":[{"name":"","type":"uint256","internalType":"uint256"}],"stateMutability":"view"},{"type":"function","name":"addLiquidity","inputs":[{"name":"amount0","type":"uint256","internalType":"uint256"},{"name":"amount1","type":"uint256","internalType":"uint256"}],"outputs":[{"name":"lpMinted","type":"uint256","internalType":"uint256"}],"stateMutability":"nonpayable"},{"type":"function","name":"allowance","inputs":[{"name":"owner","type":"address","internalType":"address"},{"name":"spender","type":"address","internalType":"address"}],"outputs":[{"name":"","type":"uint256","internalType":"uint256"}],"stateMutability":"view"},{"type":"function","name":"approve","inputs":[{"name":"spender","type":"address","internalType":"address"},{"name":"value","type":"uint256","internalType":"uint256"}],"outputs":[{"name":"","type":"bool","internalType":"bool"}],"stateMutability":"nonpayable"},{"type":"function","name":"balanceOf","inputs":[{"name":"account","type":"address","internalType":"address"}],"outputs":[{"name":"","type":"uint256","internalType":"uint256"}],"stateMutability":"view"},{"type":"function","name":"decimals","inputs":[],"outputs":[{"name":"","type":"uint8","internalType":"uint8"}],"stateMutability":"view"},{"type":"function","name":"getAmountOut","inputs":[{"name":"tokenIn","type":"address","internalType":"address"},{"name":"amountIn","type":"uint256","internalType":"uint256"}],"outputs":[{"name":"amountOut","type":"uint256","internalType":"uint256"}],"stateMutability":"view"},{"type":"function","name":"name","inputs":[],"outputs":[{"name":"","type":"string","internalType":"string"}],"stateMutability":"view"},{"type":"function","name":"removeLiquidity","inputs":[{"name":"lpAmount","type":"uint256","internalType":"uint256"},{"name":"minAmount0","type":"uint256","internalType":"uint256"},{"name":"minAmount1","type":"uint256","internalType":"uint256"}],"outputs":[{"name":"amount0","type":"uint256","internalType":"uint256"},{"name":"amount1","type":"uint256","internalType":"uint256"}],"stateMutability":"nonpayable"},{"type":"function","name":"reserve0","inputs":[],"outputs":[{"name":"","type":"uint256","internalType":"uint256"}],"stateMutability":"view"},{"type":"function","name":"reserve1","inputs":[],"outputs":[{"name":"","type":"uint256","internalType":"uint256"}],"stateMutability":"view"},{"type":"function","name":"swap","inputs":[{"name":"tokenIn","type":"address","internalType":"address"},{"name":"amountIn","type":"uint256","internalType":"uint256"},{"name":"minAmountOut","type":"uint256","internalType":"uint256"}],"outputs":[{"name":"amountOut","type":"uint256","internalType":"uint256"}],"stateMutability":"nonpayable"},{"type":"function","name":"symbol","inputs":[],"outputs":[{"name":"","type":"string","internalType":"string"}],"stateMutability":"view"},{"type":"function","name":"token0","inputs":[],"outputs":[{"name":"","type":"address","internalType":"contract IERC20"}],"stateMutability":"view"},{"type":"function","name":"token1","inputs":[],"outputs":[{"name":"","type":"address","internalType":"contract IERC20"}],"stateMutability":"view"},{"type":"function","name":"totalSupply","inputs":[],"outputs":[{"name":"","type":"uint256","internalType":"uint256"}],"stateMutability":"view"},{"type":"function","name":"transfer","inputs":[{"name":"to","type":"address","internalType":"address"},{"name":"value","type":"uint256","internalType":"uint256"}],"outputs":[{"name":"","type":"bool","internalType":"bool"}],"stateMutability":"nonpayable"},{"type":"function","name":"transferFrom","inputs":[{"name":"from","type":"address","internalType":"address"},{"name":"to","type":"address","internalType":"address"},{"name":"value","type":"uint256","internalType":"uint256"}],"outputs":[{"name":"","type":"bool","internalType":"bool"}],"stateMutability":"nonpayable"},{"type":"event","name":"Approval","inputs":[{"name":"owner","type":"address","indexed":true,"internalType":"address"},{"name":"spender","type":"address","indexed":true,"internalType":"address"},{"name":"value","type":"uint256","indexed":false,"internalType":"uint256"}],"anonymous":false},{"type":"event","name":"LiquidityAdded","inputs":[{"name":"provider","type":"address","indexed":true,"internalType":"address"},{"name":"amount0","type":"uint256","indexed":false,"internalType":"uint256"},{"name":"amount1","type":"uint256","indexed":false,"internalType":"uint256"},{"name":"lpMinted","type":"uint256","indexed":false,"internalType":"uint256"}],"anonymous":false},{"type":"event","name":"LiquidityRemoved","inputs":[{"name":"provider","type":"address","indexed":true,"internalType":"address"},{"name":"amount0","type":"uint256","indexed":false,"internalType":"uint256"},{"name":"amount1","type":"uint256","indexed":false,"internalType":"uint256"},{"name":"lpBurned","type":"uint256","indexed":false,"internalType":"uint256"}],"anonymous":false},{"type":"event","name":"Swapped","inputs":[{"name":"user","type":"address","indexed":true,"internalType":"address"},{"name":"tokenIn","type":"address","indexed":false,"internalType":"address"},{"name":"amountIn","type":"uint256","indexed":false,"internalType":"uint256"},{"name":"amountOut","type":"uint256","indexed":false,"internalType":"uint256"}],"anonymous":false},{"type":"event","name":"Transfer","inputs":[{"name":"from","type":"address","indexed":true,"internalType":"address"},{"name":"to","type":"address","indexed":true,"internalType":"address"},{"name":"value","type":"uint256","indexed":false,"internalType":"uint256"}],"anonymous":false},{"type":"error","name":"ERC20InsufficientAllowance","inputs":[{"name":"spender","type":"address","internalType":"address"},{"name":"allowance","type":"uint256","internalType":"uint256"},{"name":"needed","type":"uint256","internalType":"uint256"}]},{"type":"error","name":"ERC20InsufficientBalance","inputs":[{"name":"sender","type":"address","internalType":"address"},{"name":"balance","type":"uint256","internalType":"uint256"},{"name":"needed","type":"uint256","internalType":"uint256"}]},{"type":"error","name":"ERC20InvalidApprover","inputs":[{"name":"approver","type":"address","internalType":"address"}]},{"type":"error","name":"ERC20InvalidReceiver","inputs":[{"name":"receiver","type":"address","internalType":"address"}]},{"type":"error","name":"ERC20InvalidSender","inputs":[{"name":"sender","type":"address","internalType":"address"}]},{"type":"error","name":"ERC20InvalidSpender","inputs":[{"name":"spender","type":"address","internalType":"address"}]},{"type":"error","name":"ReentrancyGuardReentrantCall","inputs":[]},{"type":"error","name":"SafeERC20FailedOperation","inputs":[{"name":"token","type":"address","internalType":"address"}]}],"bytecode":{"object":"0x60c0604052346104165761160e6040813803918261001c8161041a565b9384928339810103126104165761003e60206100378361043f565b920161043f565b610048604061041a565b91600f83526e05265736f7572736520414d4d204c5608c1b602084015261006f604061041a565b6007815266052414d4d2d4c560cc1b602082015283519092906001600160401b03811161031c57600354600181811c9116801561040c575b60208210146102fe57601f811161039e575b50602094601f821160011461033b579481929394955f92610330575b50508160011b915f199060031b1c1916176003555b82516001600160401b03811161031c57600454600181811c91168015610312575b60208210146102fe57601f8111610290575b506020601f821160011461022d57819293945f92610222575b50508160011b915f199060031b1c1916176004555b60017f9b779b17422d0df92223018b32b4d1fa46e071723d6817e2486d003becc55f00556001600160a01b0390811691168082146101f05760805260a0526040516111ba908161045482396080518181816101cd0152818161036a0152818161067f01528181610a520152610d3c015260a051818181610172015281816102b6015281816103b30152818161053d015281816105a2015281816106ab0152610a7d0152f35b60405162461bcd60e51b815260206004820152600a60248201526929b0b6b2902a37b5b2b760b11b6044820152606490fd5b015190505f80610136565b601f1982169060045f52805f20915f5b81811061027857509583600195969710610260575b505050811b0160045561014b565b01515f1960f88460031b161c191690555f8080610252565b9192602060018192868b01518155019401920161023d565b8181111561011d5760045f52601f820160051c7f8a35acfbc15ff81a39ae7d344fd709f28e8600b4aa8c65c6b64bfe7fe36bd19b602084106102f6575b81601f9101920160051c03905f5b8281106102e957505061011d565b5f828201556001016102db565b5f91506102cd565b634e487b7160e01b5f52602260045260245ffd5b90607f169061010b565b634e487b7160e01b5f52604160045260245ffd5b015190505f806100d5565b601f1982169560035f52805f20915f5b8881106103865750836001959697981061036e575b505050811b016003556100ea565b01515f1960f88460031b161c191690555f8080610360565b9192602060018192868501518155019401920161034b565b818111156100b95760035f52601f820160051c7fc2575a0e9e593c00f959f8c92f12db2869c3395a3b0502d05e2516446f71f85b60208410610404575b81601f9101920160051c03905f5b8281106103f75750506100b9565b5f828201556001016103e9565b5f91506103db565b90607f16906100a7565b5f80fd5b6040519190601f01601f191682016001600160401b0381118382101761031c57604052565b51906001600160a01b03821682036104165756fe6080806040526004361015610012575f80fd5b5f3560e01c90816306fdde0314610ded57508063095ea7b314610d6b5780630dfe168114610d2757806318160ddd14610d0a57806323b872dd14610c2b578063313ce56714610c10578063443cb4bc14610bf35780635a76f25e14610bd657806370a0823114610b9f578063857620e11461096e57806395d89b41146108535780639cd441da146106035780639f1d0f5914610333578063a9059cbb14610302578063c57981b5146102e7578063ca706bcf146101a1578063d21220a71461015d578063d73792a9146101415763dd62ed3e146100ed575f80fd5b3461013d57604036600319011261013d57610106610ee6565b61010e610efc565b6001600160a01b039182165f908152600160209081526040808320949093168252928352819020549051908152f35b5f80fd5b3461013d575f36600319011261013d5760206040516103e88152f35b3461013d575f36600319011261013d576040517f00000000000000000000000000000000000000000000000000000000000000006001600160a01b03168152602090f35b3461013d57604036600319011261013d576001600160a01b036101c2610ee6565b166001600160a01b037f000000000000000000000000000000000000000000000000000000000000000016811490819081156102b4575b501561027f57801561027657600554905b1561026e576006545b610228610221602435610f48565b9182610f60565b6103e88302928084046103e8149015171561025a5761024c61025292602094610f9e565b90610f73565b604051908152f35b634e487b7160e01b5f52601160045260245ffd5b600554610213565b6006549061020a565b60405162461bcd60e51b815260206004820152600d60248201526c24b73b30b634b2103a37b5b2b760991b6044820152606490fd5b7f00000000000000000000000000000000000000000000000000000000000000006001600160a01b0316149050826101f9565b3461013d575f36600319011261013d57602060405160038152f35b3461013d57604036600319011261013d5761032861031e610ee6565b6024359033610fab565b602060405160018152f35b3461013d57606036600319011261013d5761034c610ee6565b602435610357611042565b80156105d1576001600160a01b039182167f000000000000000000000000000000000000000000000000000000000000000092831681811493929084801561059f575b1561056a57841561052e5750600554926006546103df837f00000000000000000000000000000000000000000000000000000000000000009692935b309033906110fb565b6103f26103eb84610f48565b9283610f60565b906103e88102908082046103e8149015171561025a576104159261024c91610f9e565b9260443584106104fe5783156104cb5783610459916020965f146104a85761043f84600554610f9e565b60055561044e82600654610f91565b6006555b339061107a565b604051918252838201528160408201527fa078c4190abe07940190effc1846be0ccf03ad6007bc9e93f9697d0b460befbb60603392a260015f5160206111655f395f51905f5255604051908152f35b6104b484600654610f9e565b6006556104c382600554610f91565b600555610452565b60405162461bcd60e51b815260206004820152600b60248201526a16995c9bc813dd5d1c1d5d60aa1b6044820152606490fd5b60405162461bcd60e51b8152602060048201526008602482015267536c69707061676560c01b6044820152606490fd5b6006546005549194506103df837f00000000000000000000000000000000000000000000000000000000000000006001600160a01b03166103d6565b60405162461bcd60e51b815260206004820152600d60248201526c24b73b30b634b2102a37b5b2b760991b6044820152606490fd5b507f00000000000000000000000000000000000000000000000000000000000000006001600160a01b0316831461039a565b60405162461bcd60e51b815260206004820152600a60248201526916995c9bc81a5b9c1d5d60b21b6044820152606490fd5b3461013d57604036600319011261013d57602435600435610622611042565b8015158061084a575b1561081757600254806107d457506106438282610f60565b5f60038211156107c65750808060011c6001810180911161025a57905b8282106107a75750505b905b610677821515610f12565b6106a38130337f00000000000000000000000000000000000000000000000000000000000000006110fb565b6106cf8330337f00000000000000000000000000000000000000000000000000000000000000006110fb565b6106db81600554610f9e565b6005556106ea83600654610f9e565b6006553315610794577f64b83944e79c3ce8d4c297411de637c3e102d064677aac0c163976ebdcd6f50e8260209461072482600254610f9e565b600255335f525f865260405f208281540190556040518281525f7fddf252ad1be2c89b69c2b068fc378daa952ba7f163c4a11628f55a4df523b3ef883393a36040805194855260208501919091528301523391606090a260015f5160206111655f395f51905f5255604051908152f35b63ec442f0560e01b5f525f60045260245ffd5b9091506107bd826107b88184610f73565b610f9e565b60011c90610660565b901561066a5750600161066a565b6108006107f76107f06107e78486610f60565b60055490610f73565b9285610f60565b60065490610f73565b8082101561081057505b9061066c565b905061080a565b60405162461bcd60e51b815260206004820152600b60248201526a16995c9bc8105b5bdd5b9d60aa1b6044820152606490fd5b5081151561062b565b3461013d575f36600319011261013d576040515f6004548060011c90600181168015610964575b6020831081146109505782855290811561093457506001146108df575b50819003601f01601f191681019067ffffffffffffffff8211818310176108cb576108c782918260405282610ebc565b0390f35b634e487b7160e01b5f52604160045260245ffd5b905060045f527f8a35acfbc15ff81a39ae7d344fd709f28e8600b4aa8c65c6b64bfe7fe36bd19b5f905b82821061091e57506020915082010182610897565b6001816020925483858801015201910190610909565b90506020925060ff191682840152151560051b82010182610897565b634e487b7160e01b5f52602260045260245ffd5b91607f169161087a565b3461013d57606036600319011261013d5760043561098a611042565b610995811515610f12565b6002546109bd6109b0826109ab60055486610f60565b610f73565b916109ab60065485610f60565b6024358210610b68576044358110610b31573315610b1e57335f525f60205260405f2054838110610b03579280604094335f525f60205203845f205580600254036002555f84518281527fddf252ad1be2c89b69c2b068fc378daa952ba7f163c4a11628f55a4df523b3ef60203392a3610a3983600554610f91565b600555610a4882600654610f91565b600655610a7683337f000000000000000000000000000000000000000000000000000000000000000061107a565b610aa182337f000000000000000000000000000000000000000000000000000000000000000061107a565b7f1dc8bb69df2b8e91fbdcbfcf93d951b3f0000f085a95fe3f7946d6161439245d845180610ae333948688846040919493926060820195825260208201520152565b0390a260015f5160206111655f395f51905f525582519182526020820152f35b839063391434e360e21b5f523360045260245260445260645ffd5b634b637e8f60e11b5f525f60045260245ffd5b60405162461bcd60e51b815260206004820152600f60248201526e536c69707061676520746f6b656e3160881b6044820152606490fd5b60405162461bcd60e51b815260206004820152600f60248201526e0536c69707061676520746f6b656e3608c1b6044820152606490fd5b3461013d57602036600319011261013d576001600160a01b03610bc0610ee6565b165f525f602052602060405f2054604051908152f35b3461013d575f36600319011261013d576020600654604051908152f35b3461013d575f36600319011261013d576020600554604051908152f35b3461013d575f36600319011261013d57602060405160128152f35b3461013d57606036600319011261013d57610c44610ee6565b610c4c610efc565b6001600160a01b0382165f818152600160209081526040808320338452909152902054909260443592915f198110610c8a575b506103289350610fab565b838110610cef578415610cdc573315610cc957610328945f52600160205260405f2060018060a01b0333165f526020528360405f209103905584610c7f565b634a1406b160e11b5f525f60045260245ffd5b63e602df0560e01b5f525f60045260245ffd5b8390637dc7a0d960e11b5f523360045260245260445260645ffd5b3461013d575f36600319011261013d576020600254604051908152f35b3461013d575f36600319011261013d576040517f00000000000000000000000000000000000000000000000000000000000000006001600160a01b03168152602090f35b3461013d57604036600319011261013d57610d84610ee6565b602435903315610cdc576001600160a01b0316908115610cc957335f52600160205260405f20825f526020528060405f20556040519081527f8c5be1e5ebec7d5bd14f71427d1e84f3dd0314c0f7b2291e5b200ac8c7c3b92560203392a3602060405160018152f35b3461013d575f36600319011261013d575f6003548060011c90600181168015610eb2575b602083108114610950578285529081156109345750600114610e5d5750819003601f01601f191681019067ffffffffffffffff8211818310176108cb576108c782918260405282610ebc565b905060035f527fc2575a0e9e593c00f959f8c92f12db2869c3395a3b0502d05e2516446f71f85b5f905b828210610e9c57506020915082010182610897565b6001816020925483858801015201910190610e87565b91607f1691610e11565b602060409281835280519182918282860152018484015e5f828201840152601f01601f1916010190565b600435906001600160a01b038216820361013d57565b602435906001600160a01b038216820361013d57565b15610f1957565b60405162461bcd60e51b815260206004820152600760248201526605a65726f204c560cc1b6044820152606490fd5b906103e58202918083046103e5149015171561025a57565b8181029291811591840414171561025a57565b8115610f7d570490565b634e487b7160e01b5f52601260045260245ffd5b9190820391821161025a57565b9190820180921161025a57565b6001600160a01b0316908115610b1e576001600160a01b031691821561079457815f525f60205260405f205481811061102957817fddf252ad1be2c89b69c2b068fc378daa952ba7f163c4a11628f55a4df523b3ef92602092855f525f84520360405f2055845f525f825260405f20818154019055604051908152a3565b8263391434e360e21b5f5260045260245260445260645ffd5b60025f5160206111655f395f51905f52541461106b5760025f5160206111655f395f51905f5255565b633ee5aeb560e01b5f5260045ffd5b916040519163a9059cbb60e01b5f5260018060a01b031660045260245260205f60448180865af19060015f51148216156110da575b604052156110ba5750565b635274afe760e01b5f9081526001600160a01b0391909116600452602490fd5b9060018115166110f257823b15153d151616906110af565b503d5f823e3d90fd5b6040516323b872dd60e01b5f9081526001600160a01b039384166004529290931660245260449390935260209060648180865af19060015f511482161561114c575b6040525f606052156110ba5750565b9060018115166110f257823b15153d1516169061113d56fe9b779b17422d0df92223018b32b4d1fa46e071723d6817e2486d003becc55f00a26469706673582212203467e47da465bf0ca21f4c6ea0f14d0d5054cf359642dab8567bb59290ba1e5664736f6c63430008210033","linkReferences":{}},"methodIdentifiers":{"FEE()":"c57981b5","FEE_DENOMINATOR()":"d73792a9","addLiquidity(uint256,uint256)":"9cd441da","allowance(address,address)":"dd62ed3e","approve(address,uint256)":"095ea7b3","balanceOf(address)":"70a08231","decimals()":"313ce567","getAmountOut(address,uint256)":"ca706bcf","name()":"06fdde03","removeLiquidity(uint256,uint256,uint256)":"857620e1","reserve0()":"443cb4bc","reserve1()":"5a76f25e","swap(address,uint256,uint256)":"9f1d0f59","symbol()":"95d89b41","token0()":"0dfe1681","token1()":"d21220a7","totalSupply()":"18160ddd","transfer(address,uint256)":"a9059cbb","transferFrom(address,address,uint256)":"23b872dd"},"id":101}